:020000040800F2
:1000000000280020D91B0008691B00086F1B00088E
:10001000751B00087B1B0008811B00080000000006
:10002000000000000000000000000000871B000826
:10003000931B0008000000009F1B0008AB1B00087A
:10004000211C0008211C0008211C0008211C00089C
:10005000211C0008211C0008211C0008211C00088C
:10006000211C0008211C0008211C0008211C00087C
:10007000211C0008211C0008211C0008211C00086C
:10008000211C0008211C0008211C0008211C00085C
:10009000211C0008211C0008211C0008211C00084C
:1000A000211C0008211C0008211C0008211C00083C
:1000B000B91B0008211C000800000000211C0008DA
:1000C000211C00080000000000000000211C0008A6
:1000D00000000000211C0008211C00080000000096
:1000E000211C0008211C0008211C00080000000041
:1000F0000000000000000000000000000000000000
:0C01000000000000000000005FF808F1A3
:1001100010B5054C237833B9044B13B10448AFF341
:1001200000800123237010BD640000200000000047
:100130006832000808B5034B1BB103490348AFF30D
:10014000008008BD00000000680000206832000840
:1001500081F0004102E000BF83F0004330B54FEA78
:1001600041044FEA430594EA050F08BF90EA020FE5
:100170001FBF54EA000C55EA020C7FEA645C7FEA78
:10018000655C00F0E2804FEA5454D4EB5555B8BF9B
:100190006D420CDD2C4480EA020281EA030382EA0C
:1001A000000083EA010180EA020281EA0303362D9E
:1001B00088BF30BD11F0004F4FEA01314FF4801C71
:1001C0004CEA113102D0404261EB410113F0004F83
:1001D0004FEA03334CEA133302D0524263EB43033A
:1001E00094EA050F00F0A780A4F10104D5F1200ED8
:1001F0000DDB02FA0EFC22FA05F2801841F1000133
:1002000003FA0EF2801843FA05F359410EE0A5F106
:1002100020050EF1200E012A03FA0EFC28BF4CF037
:10022000020C43FA05F3C01851EBE37101F00045ED
:1002300007D54FF0000EDCF1000C7EEB00006EEBFA
:100240000101B1F5801F1BD3B1F5001F0CD3490884
:100250005FEA30004FEA3C0C04F101044FEA4452DB
:1002600012F5800F80F09A80BCF1004F08BF5FEA62
:10027000500C50F1000041EB045141EA050130BD42
:100280005FEA4C0C404141EB0101013C28BFB1F554
:10029000801FE9D291F0000F04BF01460020B1FA9F
:1002A00081F308BF2033A3F10B03B3F120020CDA72
:1002B0000C3208DD02F1140CC2F10C0201FA0CF050
:1002C00021FA02F10CE002F11402D8BFC2F1200CB5
:1002D00001FA02F120FA0CFCDCBF41EA0C0190406B
:1002E000E41AA2BF01EB0451294330BD6FEA0404B4
:1002F0001F3C1CDA0C340EDC04F11404C4F120029F
:1003000020FA04F001FA02F340EA030021FA04F3B0
:1003100045EA030130BDC4F10C04C4F1200220FA07
:1003200002F001FA04F340EA0300294630BD21FA45
:1003300004F0294630BD94F0000F83F4801306BF0B
:1003400081F480110134013D4EE77FEA645C18BFFF
:100350007FEA655C29D094EA050F08BF90EA020F96
:1003600005D054EA000C04BF1946104630BD91EA8E
:10037000030F1EBF0021002030BD5FEA545C05D191
:100380004000494128BF41F0004130BD14F58004D0
:100390003CBF01F5801130BD01F0004545F0FE4144
:1003A00041F470014FF0000030BD7FEA645C1ABF79
:1003B000194610467FEA655C1CBF0B46024650EAB0
:1003C000013406BF52EA033591EA030F41F40021DC
:1003D00030BD00BF90F0000F04BF0021704730B562
:1003E0004FF4806404F132044FF000054FF0000137
:1003F00050E700BF90F0000F04BF0021704730B5F8
:100400004FF4806404F1320410F0004548BF4042CC
:100410004FF000013EE700BF42004FEAE2014FEA21
:1004200031014FEA02701FBF12F07F4393F07F4FFC
:1004300081F06051704732F07F4208BF704793F0FF
:100440007F4F04BF41F40021704730B54FF4607412
:1004500001F0004521F000411CE700BF50EA010215
:1004600008BF704730B54FF000050AE050EA0102BE
:1004700008BF704730B511F0004502D5404261EB2E
:1004800041014FF4806404F132045FEA915C3FF46F
:10049000D8AE4FF003025FEADC0C18BF03325FEA0C
:1004A000DC0C18BF033202EBDC02C2F1200300FABD
:1004B00003FC20FA02F001FA03FE40EA0E0021FAE2
:1004C00002F11444BDE600BF70B54FF0FF0C4CF4D0
:1004D000E06C1CEA11541DBF1CEA135594EA0C0F82
:1004E00095EA0C0F00F0DEF82C4481EA030621EABD
:1004F0004C5123EA4C5350EA013518BF52EA0335F8
:1005000041F4801143F4801338D0A0FB02CE4FF0A9
:100510000005E1FB02E506F00042E0FB03E54FF0D9
:100520000006E1FB03569CF0000F18BF4EF0010ED1
:10053000A4F1FF04B6F5007F64F5407404D25FEACD
:100540004E0E6D4146EB060642EAC62141EA555180
:100550004FEAC52040EA5E504FEACE2EB4F1FD0CC2
:1005600088BFBCF5E06F1ED8BEF1004F08BF5FEA40
:10057000500E50F1000041EB045170BD06F00046F2
:1005800046EA010140EA020081EA0301B4EB5C049F
:10059000C2BFD4EB0C0541EA045170BD41F4801197
:1005A0004FF0000E013C00F3AB8014F1360FDEBFBC
:1005B000002001F0004170BDC4F10004203C35DA98
:1005C0000C341BDC04F11404C4F1200500FA05F31B
:1005D00020FA04F001FA05F240EA020001F00042BC
:1005E00021F0004110EBD37021FA04F642EB060132
:1005F0005EEA430E08BF20EAD37070BDC4F10C045C
:10060000C4F1200500FA04F320FA05F001FA04F21F
:1006100040EA020001F0004110EBD37041F100010B
:100620005EEA430E08BF20EAD37070BDC4F1200516
:1006300000FA05F24EEA020E20FA04F301FA05F27E
:1006400043EA020321FA04F001F0004121FA04F226
:1006500020EA020000EBD3705EEA430E08BF20EAF6
:10066000D37070BD94F0000F0FD101F00046400030
:1006700041EB010111F4801F08BF013CF7D041EAB2
:10068000060195F0000F18BF704703F000465200B6
:1006900043EB030313F4801F08BF013DF7D043EA87
:1006A0000603704794EA0C0F0CEA135518BF95EA3D
:1006B0000C0F0CD050EA410618BF52EA4306D1D1C4
:1006C00081EA030101F000414FF0000070BD50EAE3
:1006D000410606BF1046194652EA430619D094EA6D
:1006E0000C0F02D150EA013613D195EA0C0F05D157
:1006F00052EA03361CBF104619460AD181EA0301AB
:1007000001F0004141F0FE4141F470014FF0000062
:1007100070BD41F0FE4141F4780170BD70B54FF0FD
:10072000FF0C4CF4E06C1CEA11541DBF1CEA13557D
:1007300094EA0C0F95EA0C0F00F0A7F8A4EB05045F
:1007400081EA030E52EA03354FEA013100F0888056
:100750004FEA03334FF0805545EA131343EA12631F
:100760004FEA022245EA111545EA10654FEA0026D4
:100770000EF000419D4208BF964244F1FD0404F58D
:10078000407402D25B084FEA3202B61A65EB0305E9
:100790005B084FEA32024FF480104FF4002CB6EBA6
:1007A000020E75EB030E22BFB61A754640EA0C0026
:1007B0005B084FEA3202B6EB020E75EB030E22BF66
:1007C000B61A754640EA5C005B084FEA3202B6EBA7
:1007D000020E75EB030E22BFB61A754640EA9C0066
:1007E0005B084FEA3202B6EB020E75EB030E22BF36
:1007F000B61A754640EADC0055EA060E18D04FEAF4
:10080000051545EA16754FEA06164FEAC30343EA93
:1008100052734FEAC2025FEA1C1CC0D111F4801F60
:100820000BD141EA00014FF000004FF0004CB6E759
:1008300011F4801F04BF01430020B4F1FD0C88BFF8
:10084000BCF5E06F3FF6AFAEB5EB030C04BFB6EB03
:10085000020C5FEA500C50F1000041EB045170BDF6
:100860000EF0004E4EEA113114EB5C04C2BFD4EB23
:100870000C0541EA045170BD41F480114FF0000EA7
:10088000013C90E645EA060E8DE60CEA135594EA23
:100890000C0F08BF95EA0C0F3FF43BAF94EA0C0F26
:1008A0000AD150EA01347FF434AF95EA0C0F7FF49B
:1008B00025AF104619462CE795EA0C0F06D152EAEF
:1008C00003353FF4FDAE1046194622E750EA4106D3
:1008D00018BF52EA43067FF4C5AE50EA41047FF4E4
:1008E0000DAF52EA43057FF4EBAE12E74FEA410247
:1008F00012F5001215D211D56FF47873B3EB625272
:1009000012D94FEAC12343F0004343EA505311F098
:10091000004F23FA02F018BF404270474FF000002A
:10092000704750EA013005D111F0004008BF6FF068
:10093000004070474FF00000704700BF80B483B0A4
:1009400000AF7860094A7B6852F82330012B06D14A
:10095000064A7B68002142F82310012300E00023AF
:1009600018460C37BD4680BC704700BF8000002091
:1009700080B483B000AF7860044A7B68012142F8FC
:10098000231000BF0C37BD4680BC7047800000209C
:1009900080B400AF064B1B68012B04D1044B00222E
:1009A0001A60012300E000231846BD4680BC704752
:1009B0009800002080B582B000AF00237B60A8E0E3
:1009C000584A7B6852F8232057497B6841F8232016
:1009D000564A7B6852F8232052497B6841F823200D
:1009E0007B68022B1FD07B68022B27DC7B68002BE7
:1009F00003D07B68012B0BD020E001214C4801F093
:100A0000FBFB03461946494A7B6842F8231016E06F
:100A10000221474801F0F0FB03461946434A7B6830
:100A200042F823100BE00421414801F0E5FB0346A6
:100A300019463E4A7B6842F8231000E000BF394A5D
:100A40007B6852F8232039497B6851F823309A4259
:100A500052D1344A7B6852F8232033497B6851F8DD
:100A600023309A4248D1304A7B6852F823203149DA
:100A70007B6851F823309A4211D02B4A7B6852F898
:100A800023202C497B6841F823202A4A7B6852F8AE
:100A90002330002B39D17868FFF76AFF35E0264B09
:100AA0001B68013B244A1360234B1B68002B0DD1AC
:100AB0001D4A7B6852F82330002B07D11E4BC822F9
:100AC0001A601E4A7B68012142F823101B4A7B688A
:100AD00052F82330012B18D1194B1B68013B184ADF
:100AE0001360174B1B68002B0FD1164B01221A60A5
:100AF000134B19221A6008E0104A7B68002142F863
:100B000023100D4BC8221A6000E000BF7B68013340
:100B10007B607B68022B7FF753AF00BF00BF0837B5
:100B2000BD4680BD0C000020180000200000002001
:100B3000000C014024000020300000208C00002028
:100B4000340000209800002080B500AF774B1B6870
:100B5000013B042B00F2C48001A252F823F000BF35
:100B6000750B00089D0B0008F90B00082D0C000800
:100B7000870C000800F0D4FA6C4B02221A606C4B10
:100B80001B68642202FB03F3184600F0DDFE01201F
:100B900000F0EEFE642000F0FFFEAAE000F0C0FAD4
:100BA000644B1B68012B12D1604B03221A60624B0D
:100BB0001B68624A1360604B1B68614A13605E4B9E
:100BC0001B68642202FB03F3184600F0BDFE002000
:100BD000FFF7B4FE0346012B40F08480534B0C22F8
:100BE0001A60584B02221A60142000F0E9FE4FF4FC
:100BF0007A7000F0A9FE75E000F0BCFA4D4B1B685E
:100C0000012B71D1494B04221A60494B1B684B4A96
:100C100013604D4B1B684A4A1360454B1B686422A6
:100C200002FB03F3184600F08FFE5DE000F0CCFA03
:100C3000404B1B68012B12D13C4B05221A603E4BE6
:100C40001B683E4A13603C4B1B683D4A13603A4B9D
:100C50001B68642202FB03F3184600F075FE0020B7
:100C6000FFF76CFE0346012B40D1304B0D221A607A
:100C7000344B02221A60142000F0A2FE4FF47A7066
:100C800000F062FE32E000F0C9FA2A4B1B68012B2B
:100C900012D1264B02221A602B4B1B68274A136085
:100CA000234B1B68264A1360214B1B68642202FBFE
:100CB00003F3184600F048FE0020FFF73FFE03460E
:100CC000012B15D1194B0E221A601E4B02221A60FD
:100CD000142000F075FE4FF47A7000F035FE07E046
:100CE00000BF06E000BF04E000BF02E000BF00E07C
:100CF00000BF164B1B68012B0CD1104B1B68013B2E
:100D00000E4A13600E4B1B68013B0D4A13606420B2
:100D100000F042FE0E4B1B68012B04D100F01AF8C4
:100D2000012000F025FE00BF80BD00BF4400002070
:100D30003C000020B40000204000002048000020BB
:100D40004C0000205400002038000020BC0000208F
:100D5000B800002080B500AF074B1B68012B02D103
:100D600000F0FEFA05E0054B1B68184600F0A6FBF4
:100D700000BF00BF80BD00BF540000205000002015
:100D800080B500AF8A4B1B680E2B00F088800E2BBD
:100D900000F3A5810C2B03D00D2B00F01F819EE1E9
:100DA000844B1B68012B04D100F08AFA142000F058
:100DB00007FE814B1B68012B12D17D4B04221A6068
:100DC0007E4B1B687E4A13607E4B1B687E4A136015
:100DD0007A4B1B68184600F0CBFD7C4B01221A6051
:100DE000FFF7D6FD0346012B04D1794B1B68013375
:100DF000774A13600020FFF7A1FD0346012B0DD1B8
:100E00006B4B0E221A60734B1B68714A13606F4B59
:100E100003221A6042F2107000F096FD0120FFF7E5
:100E20008DFD0346012B04D1694B1B680133684AD1
:100E300013600220FFF782FD0346012B40F0518131
:100E40005B4B02221A60614B01221A60604B1B68E7
:100E50005C4A13605E4B1B68462202FB03F35E4A4A
:100E600082FB03125211DB17D31A544A1360554BFD
:100E70001A68524B1B68D31A564A1360514B1B68B1
:100E80004F4A13604D4B1B684F4A13604B4B1B6816
:100E9000642202FB03F3184600F056FD21E1454BA6
:100EA0001B68012B04D100F033FA142000F088FDF8
:100EB000414B1B68012B0FD13D4B05221A60454B5E
:100EC0001B683F4A13603F4B1B683F4A1360414B0E
:100ED0001B68184600F04CFD0020FFF72FFD03466D
:100EE000012B0DD1324B0D221A60344B1B68384A4E
:100EF0001360364B04221A6042F2107000F024FD99
:100F00000120FFF71BFD0346012B04D1304B1B686A
:100F100001332F4A1360FFF73BFD0346012B04D139
:100F20002B4B1B6801332A4A13600220FFF706FD92
:100F30000346012B40F0D7801D4B05221A60234B3E
:100F400001221A60224B1B68224A1360204B1B6847
:100F50001846FFF74FFA14A3D3E90023FFF7DEFB8F
:100F600002460B4610461946FFF7C0FC0346154AD9
:100F70001360144B1A68174B1B68D31A0F4A13607F
:100F8000144B1B680E4A13600E4B1B680E4A13600D
:100F9000104B1B68642202FB03F3184600F0D4FCDC
:100FA000A1E000BFAFF30080333333333333D33F9B
:100FB00044000020C0000020B40000203C000020BD
:100FC00048000020380000204C0000205400002081
:100FD00050000020400000201F85EB51464B1B684D
:100FE000012B04D100F044F9142000F0E9FC434B3C
:100FF0001B68012B0FD1424B04221A60414B1B6826
:10100000414A1360414B1B68414A13603D4B1B68CA
:10101000184600F0ADFC0020FFF790FC0346012BC2
:101020000DD1374B0C221A60384B1B68394A1360BC
:10103000394B02221A6042F2107000F085FC012048
:10104000FFF77CFC0346012B04D1324B1B680133B4
:10105000304A1360FFF79CFC0346012B04D12D4B53
:101060001B6801332B4A13600220FFF767FC03461D
:10107000012B3AD1224B04221A60274B01221A601D
:10108000244B1B681F4A1360224B1B681846FFF74E
:10109000B1F917A3D3E90023FFF740FB02460B4643
:1010A00010461946FFF722FC0346184A1360174BF7
:1010B0001A68144B1B68D31A184A1360114B1B682B
:1010C000114A1360114B1B68114A13600D4B1B68CA
:1010D000642202FB03F3184600F036FC05E000BF73
:1010E00004E000BF02E000BF00E000BF00BF80BD21
:1010F000666666666666E63FC0000020B4000020B3
:10110000440000203C00002048000020380000205F
:101110004C0000205000002054000020400000201F
:1011200080B500AF01224FF48051104801F07BF8E8
:1011300000224FF400510D4801F075F800224FF4E1
:1011400080410A4801F06FF800222021084801F090
:101150006AF800224021064801F065F8012280214A
:10116000034801F060F800BF80BD00BF00080140E7
:10117000000C014080B500AF01224FF480511048AF
:1011800001F051F800224FF400510D4801F04BF8E6
:1011900000224FF480410A4801F045F80022202146
:1011A000084801F040F801224021064801F03BF8D0
:1011B00000228021034801F036F800BF80BD00BF47
:1011C00000080140000C014080B500AF00224FF440
:1011D0008051104801F027F800224FF400510D48CB
:1011E00001F021F801224FF480410A4801F01BF878
:1011F00001222021084801F016F80022402106486B
:1012000001F011F800228021034801F00CF800BF22
:1012100080BD00BF00080140000C014080B500AF58
:1012200000224FF48051104800F0FDFF01224FF4DE
:1012300000510D4800F0F7FF00224FF480410A48AA
:1012400000F0F1FF01222021084800F0ECFF00220D
:101250004021064800F0E7FF00228021034800F00B
:10126000E2FF00BF80BD00BF00080140000C01404C
:1012700080B500AF4FF480410F4800F0ECFF002232
:101280004FF400510C4800F0CEFF00224FF4805183
:10129000094800F0C8FF8021084800F0DCFF002268
:1012A0004021064800F0BFFF00222021034800F043
:1012B000BAFF00BF80BD00BF00080140000C014024
:1012C00080B500AF4FF480510F4800F0C4FF0022FA
:1012D0004FF400510C4800F0A6FF00224FF480416B
:1012E000094800F0A0FF2021084800F0B4FF0022C8
:1012F0004021064800F097FF00228021034800F0BB
:1013000092FF00BF80BD00BF00080140000C0140FB
:1013100080B500AF4FF400510F4800F09CFF002251
:101320004FF480510C4800F07EFF00224FF48041C2
:10133000094800F078FF4021084800F08CFF0022A7
:101340002021064800F06FFF00228021034800F0B2
:101350006AFF00BF80BD00BF00080140000C0140D3
:1013600080B500AF4F4B1B68042B00F2988001A2A0
:1013700052F823F089130008BF130008FF13000878
:10138000351400087514000800224FF40041464847
:1013900000F049FF01224FF48071434800F043FF01
:1013A000424B1B68424A82FB03129210DB17D31A8E
:1013B000184600F02DF93B4B01221A606FE0002225
:1013C0004FF48071384800F02EFF01224FF4007175
:1013D000354800F028FF354B1A68354B83FB021364
:1013E0009910D317C91A0B469B000B445B00D11A06
:1013F000084600F00DF92B4B02221A604FE0002244
:101400004FF40071284800F00EFF01224FF4806174
:10141000254800F008FF274B1B68254A82FB031272
:101420009210DB17D31A184600F0F2F81D4B032276
:101430001A6034E000224FF480611B4800F0F3FE94
:1014400001224FF40061184800F0EDFE194B1A68B4
:10145000174B83FB02139910D317C91A0B469B0035
:101460000B445B00D11A084600F0D2F80D4B042261
:101470001A6014E000224FF400610B4800F0D3FE24
:1014800001224FF40041084800F0CDFE0A4B1B68D2
:10149000184600F0BDF8034B00221A6000BF00BFE1
:1014A00080BD00BF9C0000200008014048000020D3
:1014B000676666664C0000205400002080B582B04C
:1014C00000AF78604E4B1B68042B00F2948001A2A1
:1014D00052F823F0E91400081D1500085B150008F8
:1014E0008F150008CD15000800224FF40041454833
:1014F00000F099FE01224FF48071424800F093FE03
:101500007B68414A82FB03129210DB17D31A1846FC
:1015100000F07EF83A4B01221A606CE000224FF492
:101520008071384800F07FFE01224FF40071354889
:1015300000F079FE7A68344B83FB02139910D317BD
:10154000C91A0B469B000B445B00D11A084600F0F9
:101550005FF82B4B02221A604DE000224FF400711D
:10156000284800F060FE01224FF48061254800F019
:101570005AFE7B68244A82FB03129210DB17D31AAF
:10158000184600F045F81E4B03221A6033E0002293
:101590004FF480611B4800F046FE01224FF40061C9
:1015A000184800F040FE7A68174B83FB021399102D
:1015B000D317C91A0B469B000B445B00D11A08468F
:1015C00000F026F80E4B04221A6014E000224FF4BB
:1015D00000610C4800F027FE01224FF40041094849
:1015E00000F021FE094B1B68184600F011F8044B6F
:1015F00000221A6000BF00BF0837BD4680BD00BF93
:101600009C000020000801406766666654000020C8
:1016100080B582B000AF78607B68092B7FD801A2CB
:1016200052F823F04D1600086316000879160008DA
:101630008F160008A5160008BB160008D116000872
:10164000E7160008FD1600080917000800227E2191
:10165000354800F0E8FD01228021334800F0E3FD29
:101660005EE000220C21304800F0DDFD0122F22175
:101670002D4800F0D8FD53E00022B6212A4800F0A2
:10168000D2FD01224821284800F0CDFD48E000228B
:101690009E21254800F0C7FD01226021224800F06C
:1016A000C2FD3DE00022CC211F4800F0BCFD01221C
:1016B00032211D4800F0B7FD32E00022DA211A483D
:1016C00000F0B1FD01222421174800F0ACFD27E015
:1016D00001220421144800F0A6FD0022FA2112483C
:1016E00000F0A1FD1CE000220E210F4800F09BFD40
:1016F0000122F0210C4800F096FD11E00022FE21AD
:10170000094800F090FD0BE00022DE21064800F0C1
:101710008AFD01222021044800F085FD00E000BF81
:1017200000BF0837BD4680BD0008014080B500AF4E
:1017300000F078FA00F00EF800F094F800F046F8A7
:10174000034801F0CDF9FFF7FFF9FFF719FBFAE7BE
:10175000C800002080B590B000AF07F11803282220
:101760000021184601F078FD3B1D00221A605A60E6
:101770009A60DA601A610223BB610123BB62102305
:10178000FB6200237B6307F11803184600F07CFD21
:101790000346002B01D000F0D1F80F237B6000231B
:1017A000BB600023FB6000233B6100237B613B1D8A
:1017B0000021184600F0E8FF0346002B01D000F09E
:1017C000BDF800BF4037BD4680BD000080B586B083
:1017D00000AF07F1080300221A605A609A60DA60CD
:1017E0003B4600221A605A601D4B4FF080421A603F
:1017F0001B4B41F63F725A60194B00229A60184BFE
:101800000922DA60164B00221A61154B00229A61F8
:10181000134801F015F90346002B01D000F08EF8B3
:101820004FF48053BB6007F1080319460C4801F0E0
:10183000ABFA0346002B01D000F080F800233B6098
:1018400000237B603B461946054801F077FC0346C0
:10185000002B01D000F072F800BF1837BD4680BDE4
:10186000C800002080B586B000AF07F10803002251
:101870001A605A609A60DA60274B9B69264A43F0E7
:1018800004039361244B9B6903F004037B607B6832
:10189000214B9B69204A43F0080393611E4B9B69CF
:1018A00003F008033B603B6800224FF6FE711B48C3
:1018B00000F0B9FC0022E021194800F0B4FC4FF61A
:1018C000FE73BB600123FB6000233B6102237B614D
:1018D00007F108031946114800F014FB0723BB6009
:1018E0000023FB6001233B6107F1080319460C4804
:1018F00000F008FBE023BB600123FB6000233B6199
:1019000002237B6107F108031946054800F0FAFA43
:1019100000BF1837BD4680BD0010024000080140DE
:10192000000C014080B582B000AF786000F05CF838
:10193000FFF740F800BF0837BD4680BD80B400AF58
:1019400072B600BFFEE7000080B483B000AF7860DD
:10195000054A7B681360054B00221A6000BF0C37F4
:10196000BD4680BC704700BFA0000020B40000202E
:1019700080B483B000AF7860054A7B681360054B84
:1019800000221A6000BF0C37BD4680BC704700BF04
:10199000A4000020B800002080B483B000AF7860BD
:1019A000054A7B681360054B00221A6000BF0C37A4
:1019B000BD4680BC704700BFA8000020BC000020CE
:1019C00080B483B000AF7860054A7B681360054B34
:1019D00000221A6000BF0C37BD4680BC704700BFB4
:1019E000AC000020C000002080B400AF294B1B6871
:1019F000002B0BDD274B1B68013B264A1360254B50
:101A00001B68002B02DC244B01221A60234B1B684D
:101A1000002B0BDD214B1B68013B204A13601F4B41
:101A20001B68002B02DC1E4B01221A601D4B1B6839
:101A3000002B0BDD1B4B1B68013B1A4A1360194B33
:101A40001B68002B02DC184B01221A60174B1B6825
:101A5000002B0BDD154B1B68013B144A1360134B25
:101A60001B68002B02DC124B01221A60114B1B6811
:101A7000002B0BDD0F4B1B68013B0E4A13600D4B17
:101A80001B68002B02DC0C4B01221A6000BFBD4614
:101A900080BC7047A0000020B4000020A4000020FB
:101AA000B8000020A8000020BC000020AC000020EE
:101AB000C0000020B0000020C400002080B485B029
:101AC00000AF154B9B69144A43F001039361124B1D
:101AD0009B6903F00103BB60BB680F4BDB690E4AD7
:101AE00043F08053D3610C4BDB6903F080537B6080
:101AF0007B680A4B5B68FB60FB6823F0E063FB607C
:101B0000FB6843F08063FB60044AFB68536000BFDE
:101B10001437BD4680BC70470010024000000140F1
:101B200080B584B000AF78607B681B68B3F1804FEC
:101B300013D10C4BDB690B4A43F00103D361094B12
:101B4000DB6903F00103FB60FB68002200211C201D
:101B500000F0A1F91C2000F0BAF900BF1037BD4613
:101B600080BD00BF0010024080B400AFFEE780B42B
:101B700000AFFEE780B400AFFEE780B400AFFEE741
:101B800080B400AFFEE780B400AF00BFBD4680BCAC
:101B9000704780B400AF00BFBD4680BC704780B4C2
:101BA00000AF00BFBD4680BC704780B500AF00F0FD
:101BB0007FF800BF80BD000080B500AF024800F094
:101BC000DBFF00BF80BD00BFC800002080B400AFB5
:101BD00000BFBD4680BC7047FFF7F8FF0B480C49BB
:101BE0000C4A002302E0D458C4500433C4188C4279
:101BF000F9D3094A094C002301E013600432A242E0
:101C0000FBD301F005FBFFF791FD704700000020BA
:101C100064000020AC3200086400002014010020A1
:101C2000FEE7000080B500AF084B1B68074A43F091
:101C300010031360032000F023F90F2000F008F8D0
:101C4000FFF73CFF0023184680BD00BF0020024084
:101C500080B582B000AF7860124B1A68124B1B78C7
:101C600019464FF47A73B3FBF1F3B2FBF3F3184662
:101C700000F03BF90346002B01D001230EE07B6806
:101C80000F2B0AD8002279684FF0FF3000F003F9DB
:101C9000064A7B681360002300E0012318460837DA
:101CA000BD4680BD58000020600000205C00002080
:101CB00080B400AF054B1B781A46054B1B681344D4
:101CC000034A136000BFBD4680BC7047600000201F
:101CD0001001002080B400AF024B1B681846BD46BF
:101CE00080BC70471001002080B485B000AF7860E0
:101CF0007B6803F00703FB600C4BDB68BB60BA68D2
:101D00004FF6FF031340BB60FB681A02BB68134326
:101D100043F0BF6343F40033BB60044ABB68D36045
:101D200000BF1437BD4680BC704700BF00ED00E027
:101D300080B400AF044BDB681B0A03F007031846AE
:101D4000BD4680BC704700BF00ED00E080B483B0AA
:101D500000AF0346FB7197F90730002B0BDBFB79D3
:101D600003F01F02064997F907305B09012000FACA
:101D700002F241F8232000BF0C37BD4680BC7047FB
:101D800000E100E080B483B000AF03463960FB712E
:101D900097F90730002B0ADB3B68DAB20C4997F958
:101DA00007301201D2B20B4483F800230AE03B68EB
:101DB000DAB20849FB7903F00F03043B1201D2B2F7
:101DC0000B441A7600BF0C37BD4680BC704700BF7D
:101DD00000E100E000ED00E080B489B000AFF86001
:101DE000B9607A60FB6803F00703FB61FB69C3F12C
:101DF0000703042B28BF0423BB61FB690433062BB4
:101E000002D9FB69033B00E000237B614FF0FF3206
:101E1000BB6902FA03F3DA43BB681A407B699A4054
:101E20004FF0FF317B6901FA03F3D9437B680B4024
:101E3000134318462437BD4680BC704780B582B036
:101E400000AF78607B68013BB3F1807F01D3012351
:101E50000FE00A4A7B68013B53600F214FF0FF30CF
:101E6000FFF790FF054B00229A60044B07221A608F
:101E7000002318460837BD4680BD00BF10E000E0D3
:101E800080B582B000AF78607868FFF72DFF00BFA3
:101E90000837BD4680BD80B586B000AF0346B96047
:101EA0007A60FB7300237B61FFF742FF78617A68F9
:101EB000B9687869FFF790FF024697F90F3011462D
:101EC0001846FFF75FFF00BF1837BD4680BD80B5DD
:101ED00082B000AF0346FB7197F907301846FFF751
:101EE00035FF00BF0837BD4680BD80B582B000AF6A
:101EF00078607868FFF7A2FF034618460837BD46AA
:101F000080BD000080B48BB000AF786039600023E2
:101F10007B6200233B6248E101227B6A02FA03F301
:101F2000FB613B681B68FA691340BB61BA69FB69D6
:101F30009A4240F037813B685B68A34A93425ED087
:101F4000A14A934275D8A14A934258D09F4A9342DE
:101F50006FD89F4A934252D09D4A934269D89D4A76
:101F600093424CD09B4A934263D89B4A934246D0BB
:101F7000994A93425DD8122B2AD8122B59D801A224
:101F800052F823F0FF1F0008D91F0008EB1F0008BC
:101F90002D200008332000083320000833200008DB
:101FA00033200008332000083320000833200008C5
:101FB00033200008332000083320000833200008B5
:101FC0003320000833200008E11F0008F51F000837
:101FD000824A934213D02CE03B68DB683B6229E0E5
:101FE0003B68DB6804333B6224E03B68DB68083312
:101FF0003B621FE03B68DB680C333B621AE03B68E6
:102000009B68002B02D104233B6213E03B689B6872
:10201000012B05D108233B627B68FA691A6109E04C
:1020200008233B627B68FA695A6103E000233B6244
:1020300000E000BFBB69FF2B01D87B6801E07B6833
:1020400004337B61BB69FF2B02D87B6A9B0002E0F3
:102050007B6A083B9B003B617B691A680F213B69E7
:1020600001FA03F3DB431A40396A3B6901FA03F3CF
:102070001A437B691A603B685B6803F08053002B4E
:1020800000F09080564B9B69554A43F001039361E1
:10209000534B9B6903F00103BB60BB68514A7B6AE9
:1020A0009B08023352F82330FB607B6A03F0030382
:1020B0009B000F2202FA03F3DB43FA681340FB6034
:1020C0007B68494A93420DD07B68484A934207D0C7
:1020D0007B68474A934201D1022304E0032302E0D4
:1020E000012300E000237A6A02F003029200934089
:1020F000FA681343FB603B497B6A9B080233FA682A
:1021000041F823203B685B6803F48013002B06D062
:10211000384B9A683749BB6913438B6006E0354BEF
:102120009A68BB69DB43334913408B603B685B684B
:1021300003F40013002B06D02E4BDA682D49BB693F
:102140001343CB6006E02B4BDA68BB69DB432949BC
:102150001340CB603B685B6803F40033002B06D070
:10216000244B5A682349BB6913434B6006E0214B5B
:102170005A68BB69DB431F4913404B603B685B688F
:1021800003F48033002B06D01A4B1A681949BB6937
:1021900013430B6006E0174B1A68BB69DB43154914
:1021A00013400B607B6A01337B623B681A687B6A71
:1021B00022FA03F3002B7FF4AFAE00BF00BF2C3731
:1021C000BD4680BC704700BF0000321000003110D7
:1021D0000000221000002110000012100000111059
:1021E000001002400000014000080140000C0140C6
:1021F000001001400004014080B485B000AF786059
:102200000B467B807B689A687B881340002B02D04A
:102210000123FB7301E00023FB73FB7B184614379B
:10222000BD4680BC704780B483B000AF78600B4679
:102230007B8013467B707B78002B03D07A887B6889
:102240001A6103E07B881A047B681A6100BF0C37AF
:10225000BD4680BC704780B485B000AF78600B4647
:102260007B807B68DB68FB607A88FB6813401A041C
:10227000FB68D9437B880B401A437B681A6100BF17
:102280001437BD4680BC704780B586B000AF78601B
:102290007B68002B01D101236CE27B681B6803F093
:1022A0000103002B00F08780924B5B6803F00C0366
:1022B000042B0CD08F4B5B6803F00C03082B12D15E
:1022C0008C4B5B6803F48033B3F5803F0BD1894BB3
:1022D0001B6803F40033002B6CD07B685B68002B19
:1022E00068D1012346E27B685B68B3F5803F06D185
:1022F000804B1B687F4A43F4803313602EE07B6879
:102300005B68002B0CD17B4B1B687A4A23F480332B
:102310001360784B1B68774A23F4802313601DE019
:102320007B685B68B3F5A02F0CD1724B1B68714AB8
:1023300043F4802313606F4B1B686E4A43F4803371
:1023400013600BE06B4B1B686A4A23F48033136005
:10235000684B1B68674A23F4802313607B685B68C3
:10236000002B13D0FFF7B6FC386108E0FFF7B2FC92
:1023700002463B69D31A642B01D90323FAE15D4B72
:102380001B6803F40033002BF0D014E0FFF7A2FC2D
:10239000386108E0FFF79EFC02463B69D31A642BC4
:1023A00001D90323E6E1534B1B6803F40033002BF0
:1023B000F0D100E000BF7B681B6803F00203002B34
:1023C00063D04C4B5B6803F00C03002B0BD0494BE4
:1023D0005B6803F00C03082B1CD1464B5B6803F4CD
:1023E0008033002B16D1434B1B6803F00203002BF4
:1023F00005D07B681B69012B01D00123BAE13D4B5D
:102400001B6823F0F8027B685B69DB0039491343E2
:102410000B603AE07B681B69002B20D0364B012211
:102420001A60FFF757FC386108E0FFF753FC0246DB
:102430003B69D31A022B01D903239BE12D4B1B6867
:1024400003F00203002BF0D02A4B1B6823F0F802A4
:102450007B685B69DB00274913430B6015E0264B63
:1024600000221A60FFF736FC386108E0FFF732FC03
:1024700002463B69D31A022B01D903237AE11D4B93
:102480001B6803F00203002BF0D17B681B6803F08C
:102490000803002B3AD07B689B69002B19D0174B9F
:1024A00001221A60FFF716FC386108E0FFF712FC02
:1024B00002463B69D31A022B01D903235AE10D4B83
:1024C0005B6A03F00203002BF0D0012000F09AFABF
:1024D0001CE00A4B00221A60FFF7FCFB38610FE09A
:1024E000FFF7F8FB02463B69D31A022B08D90323F6
:1024F00040E100BF0010024000004242800442421E
:102500009E4B5B6A03F00203002BE9D17B681B68DA
:1025100003F00403002B00F0A6800023FB75974B0B
:10252000DB6903F08053002B0DD1944BDB69934A98
:1025300043F08053D361914BDB6903F08053BB6060
:10254000BB680123FB758E4B1B6803F48073002B63
:1025500018D18B4B1B688A4A43F480731360FFF7D2
:10256000B9FB386108E0FFF7B5FB02463B69D31AB7
:10257000642B01D90323FDE0814B1B6803F48073B6
:10258000002BF0D07B68DB68012B06D17B4B1B6AEC
:102590007A4A43F0010313622DE07B68DB68002B6D
:1025A0000CD1764B1B6A754A23F001031362734BFF
:1025B0001B6A724A23F0040313621CE07B68DB6829
:1025C000052B0CD16D4B1B6A6C4A43F0040313625C
:1025D0006A4B1B6A694A43F0010313620BE0674BC5
:1025E0001B6A664A23F001031362644B1B6A634A49
:1025F00023F0040313627B68DB68002B15D0FFF720
:1026000069FB38610AE0FFF765FB02463B69D31AB4
:1026100041F28832934201D90323ABE0574B1B6A46
:1026200003F00203002BEED014E0FFF753FB3861F8
:102630000AE0FFF74FFB02463B69D31A41F28832AA
:10264000934201D9032395E04C4B1B6A03F002032C
:10265000002BEED1FB7D012B05D1484BDB69474AAE
:1026600023F08053D3617B68DB69002B00F081800D
:10267000424B5B6803F00C03082B61D07B68DB697D
:10268000022B46D13F4B00221A60FFF723FB386133
:1026900008E0FFF71FFB02463B69D31A022B01D962
:1026A000032367E0354B1B6803F00073002BF0D168
:1026B0007B681B6AB3F5803F08D1304B5B6823F41D
:1026C00000327B689B682D4913434B602B4B5B6842
:1026D00023F474127B68196A7B685B6A0B43274991
:1026E00013434B60274B01221A60FFF7F3FA38615E
:1026F00008E0FFF7EFFA02463B69D31A022B01D933
:10270000032337E01D4B1B6803F00073002BF0D050
:102710002FE01C4B00221A60FFF7DCFA386108E05A
:10272000FFF7D8FA02463B69D31A022B01D90323DB
:1027300020E0124B1B6803F00073002BF0D118E06F
:102740007B68DB69012B01D1012313E00B4B5B6834
:10275000FB60FB6803F480327B681B6A9A4206D1F7
:10276000FB6803F470127B685B6A9A4201D0012314
:1027700000E0002318461837BD4680BD0010024017
:10278000007000406000424280B584B000AF7860C5
:1027900039607B68002B01D10123D0E06A4B1B68B4
:1027A00003F007033A689A4210D9674B1B6823F07D
:1027B000070265493B6813430B60634B1B6803F0DA
:1027C00007033A689A4201D00123B8E07B681B688E
:1027D00003F00203002B20D07B681B6803F0040386
:1027E000002B05D0594B5B68584A43F4E0635360B3
:1027F0007B681B6803F00803002B05D0534B5B6814
:10280000524A43F460535360504B5B6823F0F0022C
:102810007B689B684D4913434B607B681B6803F0E2
:102820000103002B40D07B685B68012B07D1474B2D
:102830001B6803F40033002B15D101237FE07B6874
:102840005B68022B07D1414B1B6803F00073002B20
:1028500009D1012373E03D4B1B6803F00203002BF9
:1028600001D101236BE0394B5B6823F003027B68E5
:102870005B68364913434B60FFF72CFAF8600AE0B7
:10288000FFF728FA0246FB68D31A41F288329342D6
:1028900001D9032353E02D4B5B6803F00C027B68E6
:1028A0005B689B009A42EBD1274B1B6803F0070340
:1028B0003A689A4210D2244B1B6823F0070222493F
:1028C0003B6813430B60204B1B6803F007033A6817
:1028D0009A4201D0012332E07B681B6803F00403B5
:1028E000002B08D0194B5B6823F4E0627B68DB683F
:1028F000164913434B607B681B6803F00803002BE9
:1029000009D0124B5B6823F460527B681B69DB00C3
:102910000E4913434B6000F021F802460B4B5B68F5
:102920001B0903F00F030A49CB5C22FA03F3094A9F
:102930001360094B1B681846FFF78AF900231846F5
:102940001037BD4680BD00BF00200240001002408D
:1029500080320008580000205C00002080B487B05E
:1029600000AF0023FB600023BB6000237B610023DA
:102970007B6000233B611E4B5B68FB60FB6803F0E0
:102980000C03042B02D0082B03D027E0194B3B612A
:1029900027E0FB689B0C03F00F03174AD35C7B60B6
:1029A000FB6803F48033002B10D0114B5B685B0C89
:1029B00003F00103114AD35CBB607B680D4A02FB44
:1029C00003F2BB68B2FBF3F37B6104E07B680C4A63
:1029D00002FB03F37B617B693B6102E0054B3B61DA
:1029E00000BF3B6918461C37BD4680BC704700BF1E
:1029F0000010024000127A0090320008A032000855
:102A000000093D0080B485B000AF78600A4B1B68B8
:102A10000A4AA2FB03235B0A7A6802FB03F3FB600A
:102A200000BFFB685A1EFA60002BF9D100BF00BF3F
:102A30001437BD4680BC704758000020D34D62104B
:102A400080B582B000AF78607B68002B01D1012394
:102A500041E07B6893F83D30DBB2002B06D17B6808
:102A6000002283F83C207868FFF75AF87B6802223E
:102A700083F83D207B681A687B680433194610464A
:102A800000F06EFA7B68012283F846207B68012201
:102A900083F83E207B68012283F83F207B68012277
:102AA00083F840207B68012283F841207B68012263
:102AB00083F842207B68012283F843207B6801224F
:102AC00083F844207B68012283F845207B6801223B
:102AD00083F83D20002318460837BD4680BD00001E
:102AE00080B485B000AF78607B6893F83D30DBB28E
:102AF000012B01D0012335E07B68022283F83D20C1
:102B00007B681B68DA687B681B6842F00102DA6048
:102B10007B681B68164A934209D07B681B68B3F137
:102B2000804F04D07B681B68124A934211D17B68A6
:102B30001B689B6803F00703FB60FB68062B10D043
:102B40007B681B681A687B681B6842F001021A6088
:102B500007E07B681B681A687B681B6842F001020B
:102B60001A60002318461437BD4680BC704700BF6A
:102B7000002C01400004004080B582B000AF7860B6
:102B80007B681B681B6903F00203022B22D17B6860
:102B90001B68DB6803F00203022B1BD17B681B68F8
:102BA0006FF002021A617B6801221A777B681B684A
:102BB0009B6903F00303002B03D0786800F0B4F99D
:102BC00005E0786800F0A7F9786800F0B6F97B684E
:102BD00000221A777B681B681B6903F00403042B2F
:102BE00022D17B681B68DB6803F00403042B1BD134
:102BF0007B681B686FF004021A617B6802221A77F7
:102C00007B681B689B6903F44073002B03D07868D2
:102C100000F08AF905E0786800F07DF9786800F046
:102C20008CF97B6800221A777B681B681B6903F0AC
:102C30000803082B22D17B681B68DB6803F00803BC
:102C4000082B1BD17B681B686FF008021A617B6838
:102C500004221A777B681B68DB6903F00303002BEF
:102C600003D0786800F060F905E0786800F053F967
:102C7000786800F062F97B6800221A777B681B682D
:102C80001B6903F01003102B22D17B681B68DB68E3
:102C900003F01003102B1BD17B681B686FF0100230
:102CA0001A617B6808221A777B681B68DB6903F46A
:102CB0004073002B03D0786800F036F905E078689F
:102CC00000F029F9786800F038F97B6800221A775B
:102CD0007B681B681B6903F00103012B0ED17B6825
:102CE0001B68DB6803F00103012B07D17B681B68BD
:102CF0006FF001021A617868FEF714FE7B681B68AA
:102D00001B6903F08003802B0ED17B681B68DB6896
:102D100003F08003802B07D17B681B686FF0800273
:102D20001A61786800F06BFA7B681B681B6903F016
:102D30004003402B0ED17B681B68DB6803F0400327
:102D4000402B07D17B681B686FF040021A617868DE
:102D500000F0FCF87B681B681B6903F02003202B44
:102D60000ED17B681B68DB6803F02003202B07D1A2
:102D70007B681B686FF020021A61786800F036FAF1
:102D800000BF0837BD4680BD80B584B000AF786015
:102D900039600023FB737B6893F83C30012B01D131
:102DA0000223B4E07B68012283F83C207B68022286
:102DB00083F83D207B681B689B68BB60BB6823F081
:102DC0007703BB60BB6823F47F43BB607B681B68F1
:102DD000BA689A603B681B68B3F5005F3ED0B3F5F4
:102DE000005F00F28780B3F5805F00F08680B3F566
:102DF000805F7FD8702B1AD0702B7BD8602B50D07F
:102E0000602B77D8502B3CD0502B73D8402B58D008
:102E1000402B6FD8302B64D0302B6BD8202B60D058
:102E2000202B67D8002B5CD0102B5AD062E07B6837
:102E300018683B6899683B685A683B68DB6800F033
:102E40005EF97B681B689B68BB60BB6843F07703D7
:102E5000BB607B681B68BA689A604FE07B68186843
:102E60003B6899683B685A683B68DB6800F047F943
:102E70007B681B689A687B681B6842F480429A6092
:102E80003CE07B6818683B6859683B68DB681A4619
:102E900000F0BEF87B681B685021184600F015F959
:102EA0002CE07B6818683B6859683B68DB681A4609
:102EB00000F0DCF87B681B686021184600F005F91B
:102EC0001CE07B6818683B6859683B68DB681A46F9
:102ED00000F09EF87B681B684021184600F0F5F86A
:102EE0000CE07B681A683B681B681946104600F0C6
:102EF000ECF803E00123FB7300E000BF7B680122D4
:102F000083F83D207B68002283F83C20FB7B184639
:102F10001037BD4680BD80B483B000AF786000BF7D
:102F20000C37BD4680BC704780B483B000AF78607A
:102F300000BF0C37BD4680BC704780B483B000AF83
:102F4000786000BF0C37BD4680BC704780B483B04A
:102F500000AF786000BF0C37BD4680BC70470000F2
:102F600080B485B000AF786039607B681B68FB6017
:102F70007B68254A934207D07B68B3F1804F03D02A
:102F80007B68224A934208D1FB6823F07003FB6000
:102F90003B685B68FA681343FB607B681A4A93429C
:102FA00007D07B68B3F1804F03D07B68174A934208
:102FB00008D1FB6823F44073FB603B68DB68FA6868
:102FC0001343FB60FB6823F080023B685B6913439B
:102FD000FB607B68FA681A603B689A687B68DA6213
:102FE0003B681A687B689A627B68074A934203D100
:102FF0003B681A697B681A637B6801225A6100BFCB
:103000001437BD4680BC7047002C014000040040CE
:1030100080B487B000AFF860B9607A60FB681B6A63
:103020007B61FB681B6A23F00102FB681A62FB6884
:103030009B693B613B6923F0F0033B617B681B01AB
:103040003A6913433B617B6923F00A037B617A6928
:10305000BB6813437B61FB683A699A61FB687A69D4
:103060001A6200BF1C37BD4680BC704780B487B071
:1030700000AFF860B9607A60FB681B6A7B61FB682F
:103080001B6A23F01002FB681A62FB689B693B61B4
:103090003B6923F470433B617B681B033A6913432C
:1030A0003B617B6923F0A0037B61BB681B017A69EC
:1030B00013437B61FB683A699A61FB687A691A621B
:1030C00000BF1C37BD4680BC704780B485B000AFE0
:1030D000786039607B689B68FB60FB6823F0700355
:1030E000FB603A68FB68134343F00703FB607B68AF
:1030F000FA689A6000BF1437BD4680BC704780B440
:1031000087B000AFF860B9607A603B60FB689B688D
:103110007B617B6923F47F437B613B681A027B6898
:103120001A43BB6813437A6913437B61FB687A696E
:103130009A6000BF1C37BD4680BC704780B485B024
:1031400000AF786039607B6893F83C30012B01D187
:10315000022341E07B68012283F83C207B68022245
:1031600083F83D207B681B685B68FB607B681B689D
:103170009B68BB60FB6823F07003FB603B681B68C7
:10318000FA681343FB607B681B68FA685A607B68C7
:103190001B68144A934209D07B681B68B3F1804FC7
:1031A00004D07B681B68104A93420CD1BB6823F0A3
:1031B0008003BB603B685B68BA681343BB607B6895
:1031C0001B68BA689A607B68012283F83D207B689F
:1031D000002283F83C20002318461437BD4680BCEB
:1031E000704700BF002C01400004004080B483B051
:1031F00000AF786000BF0C37BD4680BC704780B41C
:1032000083B000AF786000BF0C37BD4680BC70470C
:1032100070B500260C4D0D4C641BA410A64209D1BC
:1032200000F022F800260A4D0A4C641BA410A642A6
:1032300005D170BD55F8043B98470136EEE755F8C7
:10324000043B98470136F2E7A4320008A432000894
:10325000A4320008A832000803460244934200D179
:10326000704703F8011BF9E7F8B500BFF8BC08BCCC
:103270009E467047F8B500BFF8BC08BC9E46704734
:103280000000000000000000010203040607080916
:1032900002030405060708090A0B0C0D0E0F101097
:0432A0000102000027
:0432A40035010008E8
:0432A8001101000808
:1032AC000100000000000000000000000100000010
:1032BC000000000000000000010000000000000001
:1032CC0000000000010000000000000000000000F1
:1032DC00C8000000190000000500000003000000F9
:1032EC0002000000010000000500000003000000C7
:1032FC0005000000010000000024F4001000000094
:04330C0001000000BC
:0400000508001BD9FB
:00000001FF
